:020000040000fa
:080000000002040000000000f2
:020000040000fa
:0400080018040000d8
:020000040000fa
:04000c0018040000d4
:020000040000fa
:0400100018040000d0
:020000040000fa
:0400140018040000cc
:020000040000fa
:0400180018040000c8
:020000040000fa
:04001c0018040000c4
:020000040000fa
:0400200018040000c0
:020000040000fa
:0400240018040000bc
:020000040000fa
:0400280018040000b8
:020000040000fa
:04002c0018040000b4
:020000040000fa
:0400300018040000b0
:020000040000fa
:04003400a80200001e
:020000040000fa
:0400380018040000a8
:020000040000fa
:04003c0018040000a4
:020000040000fa
:0400400018040000a0
:020000040000fa
:04004400180400009c
:020000040000fa
:040048001804000098
:020000040000fa
:04004c001804000094
:020000040000fa
:040050001804000090
:020000040000fa
:04005400180400008c
:020000040000fa
:040058001804000088
:020000040000fa
:04005c001804000084
:020000040000fa
:040060001804000080
:020000040000fa
:04006400180400007c
:020000040000fa
:040068001804000078
:020000040000fa
:04006c001804000074
:020000040000fa
:040070001804000070
:020000040000fa
:040074002a0400005a
:020000040000fa
:040078001804000068
:020000040000fa
:04007c001804000064
:020000040000fa
:040080001804000060
:020000040000fa
:04008400180400005c
:020000040000fa
:040088001804000058
:020000040000fa
:04008c001804000054
:020000040000fa
:040090001804000050
:020000040000fa
:04009400180400004c
:020000040000fa
:040098001804000048
:020000040000fa
:04009c001804000044
:020000040000fa
:0400a0001804000040
:020000040000fa
:0400a400180400003c
:020000040000fa
:0400a8001804000038
:020000040000fa
:0400ac001804000034
:020000040000fa
:0400b0001804000030
:020000040000fa
:0400b400180400002c
:020000040000fa
:0400b8001804000028
:020000040000fa
:0400bc001804000024
:020000040000fa
:0400c0001804000020
:020000040000fa
:0400c400180400001c
:020000040000fa
:0400c8001804000018
:020000040000fa
:0400cc001804000014
:020000040000fa
:0400d0001804000010
:020000040000fa
:0400d400180400000c
:020000040000fa
:0400d8001804000008
:020000040000fa
:0400dc001804000004
:020000040000fa
:0400e0001804000000
:020000040000fa
:0400e40018040000fc
:020000040000fa
:0400e80018040000f8
:020000040000fa
:0400ec0018040000f4
:020000040000fa
:0400f00018040000f0
:020000040000fa
:0400f40018040000ec
:020000040000fa
:0400f80018040000e8
:020000040000fa
:0400fc0018040000e4
:020000040000fa
:0401000018040000df
:020000040000fa
:0401040018040000db
:020000040000fa
:0401080018040000d7
:020000040000fa
:04010c0018040000d3
:020000040000fa
:0401100018040000cf
:020000040000fa
:0401140018040000cb
:020000040000fa
:0401180018040000c7
:020000040000fa
:04011c0018040000c3
:020000040000fa
:04012000900c00003f
:020000040000fa
:0401240018040000bb
:020000040000fa
:0401280018040000b7
:020000040000fa
:04012c0018040000b3
:020000040000fa
:0401300018040000af
:020000040000fa
:0401340018040000ab
:020000040000fa
:0401380018040000a7
:020000040000fa
:04013c0018040000a3
:020000040000fa
:04014000180400009f
:020000040000fa
:04014400180400009b
:020000040000fa
:040148001804000097
:020000040000fa
:04014c001804000093
:020000040000fa
:04015000180400008f
:020000040000fa
:04015400180400008b
:020000040000fa
:040158001804000087
:020000040000fa
:04015c001804000083
:020000040000fa
:04016000180400007f
:020000040000fa
:04016400180400007b
:020000040000fa
:040168001804000077
:020000040000fa
:0402080018040000d6
:020000040000fa
:04020c0018040000d2
:020000040000fa
:0402100018040000ce
:020000040000fa
:0402140018040000ca
:020000040000fa
:0402180018040000c6
:020000040000fa
:04021c0018040000c2
:020000040000fa
:0402200018040000be
:020000040000fa
:0402240018040000ba
:020000040000fa
:0402280018040000b6
:020000040000fa
:04022c0018040000b2
:020000040000fa
:0402300018040000ae
:020000040000fa
:0402340018040000aa
:020000040000fa
:0402380018040000a6
:020000040000fa
:04023c0018040000a2
:020000040000fa
:04024000180400009e
:020000040000fa
:04024400180400009a
:020000040000fa
:040248001804000096
:020000040000fa
:04024c001804000092
:020000040000fa
:04025000180400008e
:020000040000fa
:04025400180400008a
:020000040000fa
:040258001804000086
:020000040000fa
:04025c001804000082
:020000040000fa
:04026000180400007e
:020000040000fa
:04026400180400007a
:020000040000fa
:040268001804000076
:020000040000fa
:04026c001804000072
:020000040000fa
:04027000180400006e
:020000040000fa
:04027400180400006a
:020000040000fa
:040278001804000066
:020000040000fa
:04027c001804000062
:020000040000fa
:04028000180400005e
:020000040000fa
:04028400180400005a
:020000040000fa
:040288001804000056
:020000040000fa
:04028c001804000052
:020000040000fa
:04029000180400004e
:020000040000fa
:04029400180400004a
:020000040000fa
:040298001804000046
:020000040000fa
:04029c001804000042
:020000040000fa
:0402a000180400003e
:020000040000fa
:0402a400180400003a
:020000040000fa
:0402a8001804000036
:020000040000fa
:0402ac001804000032
:020000040000fa
:0402b000180400002e
:020000040000fa
:0402b400180400002a
:020000040000fa
:0402b8001804000026
:020000040000fa
:0402bc001804000022
:020000040000fa
:0402c000180400001e
:020000040000fa
:0402c400180400001a
:020000040000fa
:0402c8001804000016
:020000040000fa
:0402cc001804000012
:020000040000fa
:0402d000180400000e
:020000040000fa
:0402d400180400000a
:020000040000fa
:0402d8001804000006
:020000040000fa
:0402dc001804000002
:020000040000fa
:0402e00018040000fe
:020000040000fa
:0402e40018040000fa
:020000040000fa
:0402e80018040000f6
:020000040000fa
:0402ec0018040000f2
:020000040000fa
:0402f00018040000ee
:020000040000fa
:0402f40018040000ea
:020000040000fa
:0402f80018040000e6
:020000040000fa
:0402fc0018040000e2
:020000040000fa
:0403000018040000dd
:020000040000fa
:0403040018040000d9
:020000040000fa
:0403080018040000d5
:020000040000fa
:04030c0018040000d1
:020000040000fa
:0403100018040000cd
:020000040000fa
:0403140018040000c9
:020000040000fa
:0403180018040000c5
:020000040000fa
:04031c0018040000c1
:020000040000fa
:0403200018040000bd
:020000040000fa
:0403240018040000b9
:020000040000fa
:0403280018040000b5
:020000040000fa
:04032c0018040000b1
:020000040000fa
:0403300018040000ad
:020000040000fa
:0403340018040000a9
:020000040000fa
:0403380018040000a5
:020000040000fa
:04033c0018040000a1
:020000040000fa
:04034000180400009d
:020000040000fa
:040344001804000099
:020000040000fa
:040348001804000095
:020000040000fa
:04034c001804000091
:020000040000fa
:04035000180400008d
:020000040000fa
:040354001804000089
:020000040000fa
:040358001804000085
:020000040000fa
:04035c001804000081
:020000040000fa
:04036000180400007d
:020000040000fa
:040364001804000079
:020000040000fa
:040368001804000075
:020000040000fa
:100400008f9320000eff20000e01880000000000e6
:10041000000020000000e000020032000001200087
:10042000200288000c00070080dd20000100200071
:1004300011000700000020000000e0000200320070
:10044000000002000000000034060200000000006e
:100450000040da000000fe004440a90060012000d6
:100460000000e0000300320000002000a00188002e
:100470004440a80000000600910188008000780038
:100480000000eb0015003700e280400032a0b4000d
:100490009101ba00e280400032a0b4009102ba009b
:1004a000e280400032a0b4000002eb00472bde00e7
:1004b000f507b200602ce10004003a000059eb009f
:1004c0008301e900fdff3e00040037006128e100e0
:1004d000010032000082eb000b00070011c3ba00dc
:1004e0001101ba000604e00003003a000200e00037
:1004f000e5ff3a0000000600f607b200960188000a
:1005000082007800f5ff37003159ba008301e90015
:100510000c0032002159ba008301e90008003200c2
:100520000400e00003003a00e280400032a0b40082
:10053000f5ff370011d9ba008301e900faff3a004c
:100540008100e800e180400032a0b4000000060015
:100550003400f800881f780008002000a8018800f7
:100560004f0478000000fa008460a9000080fa00bf
:100570003400f900004006000200fa00000f780085
:100580002005800000c0a10000d0a10000e0a00074
:10059000200588000021ef00202028002008880086
:1005a0001e007800cf80de007202070002002000eb
:1005b000a3472400c502070002002000a31f240057
:1005c000ee010700500207000000780010088800c4
:1005d0008460a9009460a8000080fa000000060072
:1005e0000000fa000621ef000000220080088800c9
:1005f00084e0a90094e0a9000080fa000000060051
:100600000000fa00e024ef000080eb0000168800f4
:10061000e224ef0000dd200040168800c002a9009f
:10062000c202a8006500a8009660a8004400070068
:10063000ebff07000080fa00000006000200fa004d
:1006400010002000000f7800f003200060088800f0
:100650000621ef0084e0a90011e1a800080037009e
:100660002104800000082000008060000000e000fd
:10067000030032000000eb00000f780084e0a900c6
:100680005116800000102000008060000000e00093
:10069000030032001e0078000000e000f0ff3a0086
:1006a0000621ef0008003700210480000008200028
:1006b000008060000000e000030032000000eb005a
:1006c000000f780084e0a90051168000001020007f
:1006d000008060000000e00003003a001e00780087
:1006e0000000e000f0ff3a000621ef0008003700ac
:1006f0002104800000082000008060000000e0006d
:10070000030032000000eb00000f780084e0a90035
:100710005116800000102000008060000000e00002
:10072000030032001e0078000000e000f0ff3a00f5
:1007300011e1a9001e0078000080fa000000060008
:100740000000fa004023ef0041e3a900001a8000f6
:100750000080a1000090a100001a8800001a80000b
:100760000040a1000050a1000060a1000070a100a5
:10077000001a8800001a80000040a0000050a0006d
:100780000060a0000070a100001a88004043a9008a
:100790004023a9004223ef00211a800000f021002d
:1007a00001007000201a880020c0b30044e3b700a5
:1007b000401a80000050a1000060a1000070a1005c
:1007c000401a88005023ef000080fa000000060065
:1007d0000200fa00000f78001e007800e40f5000bd
:1007e00008003a00e244a800c842a800411a80006c
:1007f00000fe2f00008060000020a000401a88004a
:100800000000000041e3a8004023a8000000000011
:10081000001a8000610060000000e000fcff320070
:1008200041e3a900001880000080fa0000000600e3
:100830003400f800881f780008002000a801880014
:100840004f0478000000fa000080fa003400f9003c
:1008500000400600809fbe003400f8000000200029
:10086000a00188000000fa003004800068006000e9
:100870000000e00007003200511680000004200054
:10088000008060000000e000020032001000200044
:10089000804988008660a9000080fa003400f900d1
:1008a0004f00be00004006000e00fa00889fbe0008
:1008b0004007980051079800620798000000eb007d
:1008c000000f7800e003070080a42300010220004d
:1008d000200798003107980064004700410020007d
:1008e000910207004e0090000000e00003003a0073
:1008f00000c3b300940207006a0037001e007800ae
:100900000000e00006003a00ce009000f0702200e7
:1009100080804000e0e12400808f5000110036000c
:10092000ce00900000712200000178001100090043
:100930008200d800004078000043b0008202070027
:1009400010002000000f7800ce00900000712200ff
:1009500000017800110009008200d8008000fd002d
:10096000400798001e0078000000e00006003a00f2
:100970004e009000713e200080804000e07c20000e
:10098000808f500011003600ce009000803e200085
:1009900000017800110009008200d80000407800b2
:1009a0000043b0006802070010002000000f78002c
:1009b000ce009000803e2000000178001100090068
:1009c0008200d8008000fd00400798001e007800db
:1009d0000000e00006003a004e00900031062000c2
:1009e00080804000600c2000808f50001100360095
:1009f000ce009000400620000001780011000900a0
:100a00008200d800004078000043b0004e0207008a
:100a100010002000000f7800ce009000400620005b
:100a200000017800110009008200d8008000fd005c
:100a3000400798001e0078000000e00004003a0023
:100a40004e00900069004000f20f50001100360087
:100a5000ce009000a00020000001780011000900e5
:100a60008200d800004078000043b0003602070042
:100a700010002000000f7800ce009000a0002000a1
:100a800000017800110009008200d8008000fd00fc
:100a9000400798004e009000004078000043b000ee
:100aa000290207005e009000cf80de0031010700c0
:100ab0000004be006e009000cf80de002d01070014
:100ac0000001be000800be00ac00070002002000cc
:100ad000a34724007d010700ea00070010079800e3
:100ae000e0c2b300180207000000eb00000f78001e
:100af0001e0090000000e00003003a0000c3b300b5
:100b0000110207003c0037001e0078000000e000e2
:100b100006003a001e009000310620008080400050
:100b2000600c2000808f5000120036009e00900064
:100b30004006200000017800110009008200d80062
:100b4000004078000043b000ff01070010002000c3
:100b5000000f78009e009000400620000001780001
:100b6000110009008200d8008000fd0010079800e5
:100b70000200370000c3b300f30107001e00780035
:100b80000000e00004003a001e00900069004000f0
:100b9000f20f5000120036009e009000a0002000ce
:100ba00000017800110009008200d80000407800a0
:100bb0000043b000e401070010002000000f78009f
:100bc0009e009000a00020000001780011000900a4
:100bd0008200d8008000fd00100798000200370056
:100be00000c3b300d80107001e0090000040780049
:100bf0000043b000d401070011c0b300f000200092
:100c0000b40107004f04be000080fa000000060097
:100c10000000fa000c030700a100200080952800c6
:100c2000c1010700b0498000c1942800e14078006c
:100c30000000e800b049880001407800c2010700c8
:100c400011c0b300f0002000a20107000080fa00ec
:100c5000000006000000fa003629ef003429ef00fa
:100c60000080fa00000006000400fa00900307006c
:100c700063fe070093010700401f20003efe0700af
:100c80000000eb00000f78000000eb001007980058
:100c900001003700000000000040fe0067fe070072
:100ca0000000e0000a0032001e0fe800f0c1210041
:100cb0009e007800808f5000050036001e009000d6
:100cc0000000e800100798000000eb00000f78001b
:100cd00032c9bf000004e0001d0032005116800040
:100ce00000042000008060000000e00012003200dc
:100cf000a04980000000e800a0498800a0498000c9
:100d0000e50f500001003400c1ff0700a04980003a
:100d1000f00f50000e0034000000eb00000f7800d0
:100d20000000eb00100798003269ef00c9ff0700d0
:100d3000c5020700060037003269ef00c5ff070053
:100d4000c102070011c0b3001000200061010700bc
:100d5000804980000000e000ceff32003029ef0023
:100d60009e0078001e00900002c22100cefe070007
:100d700010c0b30032e9b700c7ff3700889fbe003c
:100d80008a9fbe008c1f7800b8000700bf003300a8
:100d900003866c006450e1002e0032006420e10004
:100da000330032006150e1002f0032006120e10089
:100db0003100320085855500eb07b00009002000a6
:100dc00008042000050037000804440089844c0012
:100dd0000a0031000603430087834b0000015300e3
:100de00081815b00f8ff33000203be000800a00011
:100df0000804440089844c00f6ff3900c639dd0040
:100e00008301730001003200130020008904d10027
:100e10000884d3000998a300050032000800a70049
:100e20000300a0008904d1000884d3008b05e800ea
:100e30008904d1000884d3000001eb000281d200b4
:100e40004f00070001f0a1000cf0a70001f0a00086
:100e5000970037006420e100990032000801be00cd
:100e60000200be00f7ff37006120e100940032006d
:100e70006000b800f3ff37000000200001f82700f1
:100e8000f0ff37000001be00630007000470a700f8
:100e900003f0a1006509b100160032000d00350015
:100ea0006828e10006003500f0ff2f00f1ff270061
:100eb0000300e00013003b000100280000000500d3
:100ec00000004000818048008502e900fcff3a00f4
:100ed00008003700f88f420002003c008000eb0061
:100ee000000005008100d1000080d3008502e800e9
:100ef000fcff3a000300e00002003b00600010002d
:100f0000e0801800000006000001be00420007005b
:100f10000470a70003f0a10003f8a30013003a0037
:100f20006509b10010003200090035006928e100b0
:100f3000020035000100280000000500000040000c
:100f4000818048008502e900fcff3a0000000600ad
:100f5000f88f4200050035008100d1000080d300e9
:100f60008502e800fcff3a00000006008000eb006c
:100f7000000005004f89de008201780087003700fd
:100f800081002000618055000b003d000b00200017
:100f900061fe2f000100e1001d003400828171001c
:100fa000610164008904d1000884d3000000e800d6
:100fb000faff3a0071002000610064000300700035
:100fc000020060000900320061044400e0844c002b
:100fd0000988a500050032008b05e8006808e100db
:100fe00002003a008904d1000884d300f20f2000e7
:100ff0000258e10005003d00c75ddd00f907b200c1
:101000008980750008007800000006000bf82700b2
:101010008b00780000000500c70ade00f107b2006f
:10102000f50fb20008003200e1cf420002003200aa
:101030000170a00024000500810f70000100320043
:101040000408050044000500810f700002003a000a
:10105000140005008502e9000000400081c048003e
:10106000fcff3b000170a000240005000004be004e
:10107000e9ff07000003be000405be000200be0039
:10108000e5ff0700844f7500000006000200be0067
:101090006450e100050036006420e10002003600e3
:1010a0000968a30001003a000800be000160a0002a
:1010b0004f0678004f05be004f04be00000006003a
:1010c000f0ff2f00f1ff2700f9ff3700889fbe00d7
:1010d0008a9fbe008c1f7800e4ff0700ebff3300ff
:1010e00003866c006450e100240032006420e100bb
:1010f000270032006150e100220032006120e1004f
:10110000210032008b854200eb07b1000134b800aa
:10111000003ab8000804420089844a00013ab80045
:101120000030b8008880400009014a000400330004
:101130000000400081804800020149008b05e90061
:10114000c909dd0083017000010032001300200096
:10115000c814de004814dd004709de001200b200aa
:10116000c808de000884700085ff070001f0a100b8
:101170000cf0a70001f0a000cdff37006120e100d6
:10118000cfff32000801be000200be00f7ff3700ab
:101190006150e100fcff3a00c9ff3700881f78006a
:1011a000030478000300e00007003d006000100029
:1011b000e080180060011900e081190002003b0086
:1011c00001f02d00030037000400070008f0a7001d
:1011d00001f0a0004f04780000000600889fbe00c8
:1011e0008a9fbe00008270000402710004827100b8
:1011f000260032000004be000200be006011b800ec
:101200006b092000950220000182cf000a003900fe
:101210000541b1000082cf00070039000541b1004f
:101220000982cf00040039000541b1000882cf00d7
:10123000010039000541b1000542520012003200a0
:101240000a003b0082817100610164008100d100cd
:101250000080d3008984d3000884d3008b05e80084
:101260000442e800f7ff3a00070037000804440092
:1012700089844c0000004800818048008b05e9000b
:101280000442e900f9ff3a003dff07004f05be00a8
:081290004f04be00000006003f
:020000040000fa
:1012980035350000343400003333000032320000aa
:1012a80031310000303000005265000073650000e5
:0c12b80074200000496e000020000000bf
:020000040000fa
:1012c4000000fa00260007000080fa000000060073
:1012d4000600fa0010079800414798004e4090001d
:1012e4000004e0000300320021c0b300100020001d
:1012f400500007000000eb00000f780003003700e7
:1013040010002000020107001e0fe8001e009000dc
:101314009e007800808f5000f9ff35000080fa00ad
:10132400000006000400fa00000f7800110798007e
:101334009e0090001e007800e00007000080fa0084
:10134400000006000200fa00004f78009e4078007a
:1013540020002000bf0007000080fa000000060003
:101364000000fa00c802a900c9e2a900c822a90025
:10137400cde2a900c9c2a900c842a900c9a2a90016
:10138400c862a900c042a900c982a900c922a90053
:10139400c8a2a900400620003501070081c3b3009c
:1013a40010002000ab0007008040eb00100020007c
:1013b400c7ff070081c0b30010002000a50007008c
:1013c4008040eb0010002000c1ff070011c0b300f3
:1013d400100020009f0007008040eb001000200058
:1013e400bbff070061c0b300100020009900070094
:1013f4008040eb0010002000b5ff070021c0b300bf
:1014040010002000930007008040eb001000200033
:10141400afff0700c1c0b300100020008d0007001b
:101424008040eb0010002000a9ff07000080fa00b4
:10143400000006000400fa00000f7800214798001d
:101444001e007800e20f500006003200e30f500047
:1014540006003200e10f50000a003a00cc02a90055
:1014640009003700cc02a80007003700cc02a9000d
:10147400ae40900000c8b30000c070002047980040
:101484000100370000000000cc22a8002e4090008c
:101494006140600061406000614060000080fb00ca
:1014a400610060004e00dd0062168000f1ff2b0039
:1014b4008100610001007000601688002e409000d9
:1014c4000080fb00620060000080d10000407800d2
:1014d400614060000080fb00610060004200dd00ac
:1014e40062168000b1ff2f008100610001007000ce
:1014f400601688002e4090000080fb0064006000ad
:101504004280de0000407800614060000080fb0003
:10151400610060004d00dd0062168000f1ff2d00c7
:101524008100610001007000601688002e40900068
:101534000080fb00680060004380de00004078000b
:10154400614060000080fb00610060004300dd003a
:101554006216800071ff2f0081006100010070009d
:10156400601688002e4090000080fb007000600030
:101574004480de0000407800614060000080fb0091
:10158400610060004c00dd0062168000f1ff2e0057
:101594008100610001007000601688002e409000f8
:1015a4008080fb0000022000008060004580de0097
:1015b40000407800614060000080fb006100600032
:1015c4004200dd0022168000b1ff2f00810061007f
:1015d40001007000201688002e4090008080fb00df
:1015e40000042000008060004680de000040780097
:1015f400614060000080fb00610060004900dd0084
:1016040062168000f1df2f0081006100010070008c
:10161400601688002e4090000080fb004700de002a
:1016240000407800614060000080fb0061006000c1
:101634004500dd0062168000f1fd2f00810061008d
:101644000100700060168800cc22a9000080fa0016
:10165400000006000400fa00000f780021479800fb
:10166400d192200091407800b0c4b30080cf5000e4
:1016740010003e002dc9bf000080fb00c200dd0049
:1016840000802000008040001e0878002dc9bf00a3
:101694000080fb00c200dd002080200000804000ac
:1016a400ae409000014878002dc9bf000040e8001a
:1016b4002de9b7000080fa00000006000600fa00d9
:1016c40010079800210798000040eb00004f7800b5
:1016d400080037001e80fb009e0090000080400040
:1016e400104078008040780020002000d9ff0700d7
:1016f4001e4fe8009e80fb002e0090000000e900d1
:10170400808f5000f3ff35000080fa0000000600cf
:101714000400fa00100798000000eb00000f7800a6
:101724001e003700c1922000914078002dc9bf00ef
:1017340080cf5000180031002cc9bf000080fb008e
:101744004200dd008080e80000802000008040002e
:10175400904078002cc9bf000080fb004201dd00ee
:1017640000802000000041001000780031ff0700d5
:101774002cc9bf000040e8002ce9b700c19220004a
:10178400914078002dc9bf0080cf5000020039007d
:101794002c69ef002d69ef001e0fe8001e00900079
:1017a4009e007800808f5000deff35000080fa0034
:1017b400000006000400fa00204798002e40900024
:1017c4000080fb00e10f50000d003200e10f5000db
:1017d40003003c000000e000060032001100370066
:1017e400e20f500009003200e30f50000a003200fb
:1017f4000c0037000040eb00004f78000c0037006d
:1018040000c4b300004f78000900370040c1b300a2
:10181400004f78000600370040c5b300004f780041
:10182400030037000040eb00004f78000000000088
:101834009e4078003000200086ff07000080fa00f8
:10184400000006000000fa0011c0b30010002000e0
:10185400f8fe0700500020000500070021c0b30077
:1018640010002000f3fe07000080fa0000000600cc
:101874000400fa00100798000c0037000000eb0089
:10188400000f7800030037001e0078000000e80015
:10189400000f78001e007800ee0f5000faff3400ad
:1018a4001e0090000000e900100798001e00900040
:1018b4000000e000f1ff3c000080fa000000060098
:1018c4000200fa00000f78009e007800803e20009d
:1018d4000088b900800078004000200000017800f2
:1018e400110009008200d800600888000621ef007a
:1018f40084e0a90011e1a800000000002104800098
:1019040000082000008060000000e000fbff3200bf
:1019140011e1a9000080fa00000006003400f8007c
:10192400881f780008002000a80188004f04780070
:101934000000fa008bc0a9000080fa003400f9000e
:10194400004006000000fa00871f7800881f780016
:101954000500fc0057052000373b8800a80a20003a
:10196400383b880027a6a8004f047800cf037800ee
:1019740000202200303188004031800000a0a00007
:1019840000b0a1004031880023c6a90023e6a900c5
:1019940027e6a80027a6a900100680000080a00062
:1019a4000090a10000a0a10010068800100680008d
:1019b4000080a0000090a10000a0a10010068800f3
:1019c4008bc0a9009bc0a8000080fa00000006009c
:1019d4000200fa00000f7800871f7800881f780043
:1019e4000500fc0057052000373b8800a80a2000aa
:1019f400383b880027a6a8004f047800cf0378005e
:101a040027e6a8001e007800004078006f406000c0
:101a14000080fb006f0060004a00dd00123180008e
:101a2400f13f2c008100610001007000103188003a
:101a3400103180000080a1000090a00010318800c7
:101a44002026ef002026ef002026ef002266ef007c
:101a540023e6a80027a6a9000040fe00000000001d
:101a6400871f7800881f78000500fc0057052000b8
:101a7400373b8800a80a2000383b880027a6a80026
:101a84004f047800cf03780027e6a90030318000a6
:101a94000080a1000090a100303188002426ef00ce
:101aa40027a6a9000080fa00000006000000fa0042
:101ab400013a800000002800008060000000e0007f
:101ac4000100320041e7a900013a8000000024002f
:101ad400008060000000e0000100320041c7a9005e
:101ae400013a800000402000008060000000e00017
:101af400010032004147a900013a80000020200083
:101b0400008060000000e000010032004127a900cd
:101b1400013a800000082000008060000000e0001e
:101b24000100320040e7a900013a800000042000cf
:101b3400008060000000e0000100320040c7a900fe
:101b4400003a8000700060000000e00001003200f4
:101b54004087a900003a8000680060000000e000af
:101b6400010032004067a900003a80006400600070
:101b74000000e000010032004047a900003a800064
:101b8400620060000000e000010032004027a9006c
:101b9400003a8000610060000000e00001003200b3
:0c1ba4004007a9000080fa0000000600c5
:020000040000fa
:101bb00000080000300100000000000030090000b3
:0c1bc0000800000000000000e60d80009e
:020000040000fa
:041bcc000000000015
:020000040000fa
:0200000401f009
:04000c001eff0000d3
:020000040000fa
:0200000401f009
:04001c00feff0000e3
:00000001FF
